{
  "contractName": "ZineCollection",
  "abi": [
    {
      "inputs": [
        {
          "internalType": "string",
          "name": "_name",
          "type": "string"
        },
        {
          "internalType": "string",
          "name": "_symbol",
          "type": "string"
        },
        {
          "internalType": "string",
          "name": "_baseUri",
          "type": "string"
        }
      ],
      "stateMutability": "nonpayable",
      "type": "constructor"
    },
    {
      "anonymous": false,
      "inputs": [
        {
          "indexed": true,
          "internalType": "address",
          "name": "account",
          "type": "address"
        },
        {
          "indexed": true,
          "internalType": "address",
          "name": "operator",
          "type": "address"
        },
        {
          "indexed": false,
          "internalType": "bool",
          "name": "approved",
          "type": "bool"
        }
      ],
      "name": "ApprovalForAll",
      "type": "event"
    },
    {
      "anonymous": false,
      "inputs": [
        {
          "indexed": true,
          "internalType": "address",
          "name": "operator",
          "type": "address"
        },
        {
          "indexed": true,
          "internalType": "address",
          "name": "from",
          "type": "address"
        },
        {
          "indexed": true,
          "internalType": "address",
          "name": "to",
          "type": "address"
        },
        {
          "indexed": false,
          "internalType": "uint256[]",
          "name": "ids",
          "type": "uint256[]"
        },
        {
          "indexed": false,
          "internalType": "uint256[]",
          "name": "values",
          "type": "uint256[]"
        }
      ],
      "name": "TransferBatch",
      "type": "event"
    },
    {
      "anonymous": false,
      "inputs": [
        {
          "indexed": true,
          "internalType": "address",
          "name": "operator",
          "type": "address"
        },
        {
          "indexed": true,
          "internalType": "address",
          "name": "from",
          "type": "address"
        },
        {
          "indexed": true,
          "internalType": "address",
          "name": "to",
          "type": "address"
        },
        {
          "indexed": false,
          "internalType": "uint256",
          "name": "id",
          "type": "uint256"
        },
        {
          "indexed": false,
          "internalType": "uint256",
          "name": "value",
          "type": "uint256"
        }
      ],
      "name": "TransferSingle",
      "type": "event"
    },
    {
      "anonymous": false,
      "inputs": [
        {
          "indexed": false,
          "internalType": "string",
          "name": "value",
          "type": "string"
        },
        {
          "indexed": true,
          "internalType": "uint256",
          "name": "id",
          "type": "uint256"
        }
      ],
      "name": "URI",
      "type": "event"
    },
    {
      "inputs": [
        {
          "internalType": "address",
          "name": "account",
          "type": "address"
        },
        {
          "internalType": "uint256",
          "name": "id",
          "type": "uint256"
        }
      ],
      "name": "balanceOf",
      "outputs": [
        {
          "internalType": "uint256",
          "name": "",
          "type": "uint256"
        }
      ],
      "stateMutability": "view",
      "type": "function"
    },
    {
      "inputs": [
        {
          "internalType": "address[]",
          "name": "accounts",
          "type": "address[]"
        },
        {
          "internalType": "uint256[]",
          "name": "ids",
          "type": "uint256[]"
        }
      ],
      "name": "balanceOfBatch",
      "outputs": [
        {
          "internalType": "uint256[]",
          "name": "",
          "type": "uint256[]"
        }
      ],
      "stateMutability": "view",
      "type": "function"
    },
    {
      "inputs": [],
      "name": "baseUri",
      "outputs": [
        {
          "internalType": "string",
          "name": "",
          "type": "string"
        }
      ],
      "stateMutability": "view",
      "type": "function"
    },
    {
      "inputs": [
        {
          "internalType": "address",
          "name": "account",
          "type": "address"
        },
        {
          "internalType": "address",
          "name": "operator",
          "type": "address"
        }
      ],
      "name": "isApprovedForAll",
      "outputs": [
        {
          "internalType": "bool",
          "name": "",
          "type": "bool"
        }
      ],
      "stateMutability": "view",
      "type": "function"
    },
    {
      "inputs": [
        {
          "internalType": "address",
          "name": "",
          "type": "address"
        },
        {
          "internalType": "uint256",
          "name": "",
          "type": "uint256"
        }
      ],
      "name": "magazineById",
      "outputs": [
        {
          "internalType": "uint256",
          "name": "id",
          "type": "uint256"
        },
        {
          "internalType": "bool",
          "name": "isOnSale",
          "type": "bool"
        },
        {
          "internalType": "string",
          "name": "title",
          "type": "string"
        },
        {
          "internalType": "string",
          "name": "content",
          "type": "string"
        },
        {
          "internalType": "uint256",
          "name": "price",
          "type": "uint256"
        }
      ],
      "stateMutability": "view",
      "type": "function"
    },
    {
      "inputs": [
        {
          "internalType": "uint256",
          "name": "",
          "type": "uint256"
        }
      ],
      "name": "magazines",
      "outputs": [
        {
          "internalType": "uint256",
          "name": "id",
          "type": "uint256"
        },
        {
          "internalType": "bool",
          "name": "isOnSale",
          "type": "bool"
        },
        {
          "internalType": "string",
          "name": "title",
          "type": "string"
        },
        {
          "internalType": "string",
          "name": "content",
          "type": "string"
        },
        {
          "internalType": "uint256",
          "name": "price",
          "type": "uint256"
        }
      ],
      "stateMutability": "view",
      "type": "function"
    },
    {
      "inputs": [],
      "name": "name",
      "outputs": [
        {
          "internalType": "string",
          "name": "",
          "type": "string"
        }
      ],
      "stateMutability": "view",
      "type": "function"
    },
    {
      "inputs": [
        {
          "internalType": "address",
          "name": "from",
          "type": "address"
        },
        {
          "internalType": "address",
          "name": "to",
          "type": "address"
        },
        {
          "internalType": "uint256[]",
          "name": "ids",
          "type": "uint256[]"
        },
        {
          "internalType": "uint256[]",
          "name": "amounts",
          "type": "uint256[]"
        },
        {
          "internalType": "bytes",
          "name": "data",
          "type": "bytes"
        }
      ],
      "name": "safeBatchTransferFrom",
      "outputs": [],
      "stateMutability": "nonpayable",
      "type": "function"
    },
    {
      "inputs": [
        {
          "internalType": "address",
          "name": "from",
          "type": "address"
        },
        {
          "internalType": "address",
          "name": "to",
          "type": "address"
        },
        {
          "internalType": "uint256",
          "name": "id",
          "type": "uint256"
        },
        {
          "internalType": "uint256",
          "name": "amount",
          "type": "uint256"
        },
        {
          "internalType": "bytes",
          "name": "data",
          "type": "bytes"
        }
      ],
      "name": "safeTransferFrom",
      "outputs": [],
      "stateMutability": "nonpayable",
      "type": "function"
    },
    {
      "inputs": [
        {
          "internalType": "address",
          "name": "operator",
          "type": "address"
        },
        {
          "internalType": "bool",
          "name": "approved",
          "type": "bool"
        }
      ],
      "name": "setApprovalForAll",
      "outputs": [],
      "stateMutability": "nonpayable",
      "type": "function"
    },
    {
      "inputs": [
        {
          "internalType": "bytes4",
          "name": "interfaceId",
          "type": "bytes4"
        }
      ],
      "name": "supportsInterface",
      "outputs": [
        {
          "internalType": "bool",
          "name": "",
          "type": "bool"
        }
      ],
      "stateMutability": "view",
      "type": "function"
    },
    {
      "inputs": [],
      "name": "symbol",
      "outputs": [
        {
          "internalType": "string",
          "name": "",
          "type": "string"
        }
      ],
      "stateMutability": "view",
      "type": "function"
    },
    {
      "inputs": [],
      "name": "tokenCount",
      "outputs": [
        {
          "internalType": "uint256",
          "name": "",
          "type": "uint256"
        }
      ],
      "stateMutability": "view",
      "type": "function"
    },
    {
      "inputs": [
        {
          "internalType": "uint256",
          "name": "amount",
          "type": "uint256"
        }
      ],
      "name": "mint",
      "outputs": [],
      "stateMutability": "nonpayable",
      "type": "function"
    },
    {
      "inputs": [
        {
          "internalType": "bool",
          "name": "isOnSale",
          "type": "bool"
        },
        {
          "internalType": "string",
          "name": "title",
          "type": "string"
        },
        {
          "internalType": "string",
          "name": "content",
          "type": "string"
        },
        {
          "internalType": "uint256",
          "name": "price",
          "type": "uint256"
        }
      ],
      "name": "addNewMagazine",
      "outputs": [],
      "stateMutability": "nonpayable",
      "type": "function"
    },
    {
      "inputs": [
        {
          "internalType": "uint256",
          "name": "index",
          "type": "uint256"
        },
        {
          "internalType": "address",
          "name": "owner",
          "type": "address"
        }
      ],
      "name": "buyMagazine",
      "outputs": [],
      "stateMutability": "payable",
      "type": "function"
    },
    {
      "inputs": [
        {
          "internalType": "uint256",
          "name": "id",
          "type": "uint256"
        }
      ],
      "name": "setToUnSale",
      "outputs": [],
      "stateMutability": "nonpayable",
      "type": "function"
    },
    {
      "inputs": [
        {
          "internalType": "uint256",
          "name": "id",
          "type": "uint256"
        }
      ],
      "name": "setToSale",
      "outputs": [],
      "stateMutability": "nonpayable",
      "type": "function"
    },
    {
      "inputs": [
        {
          "internalType": "uint256",
          "name": "price",
          "type": "uint256"
        },
        {
          "internalType": "uint256",
          "name": "id",
          "type": "uint256"
        }
      ],
      "name": "changePrice",
      "outputs": [],
      "stateMutability": "nonpayable",
      "type": "function"
    },
    {
      "inputs": [
        {
          "internalType": "uint256",
          "name": "_tokenId",
          "type": "uint256"
        }
      ],
      "name": "uri",
      "outputs": [
        {
          "internalType": "string",
          "name": "",
          "type": "string"
        }
      ],
      "stateMutability": "view",
      "type": "function"
    },
    {
      "inputs": [],
      "name": "getMagazines",
      "outputs": [
        {
          "components": [
            {
              "internalType": "uint256",
              "name": "id",
              "type": "uint256"
            },
            {
              "internalType": "bool",
              "name": "isOnSale",
              "type": "bool"
            },
            {
              "internalType": "string",
              "name": "title",
              "type": "string"
            },
            {
              "internalType": "string",
              "name": "content",
              "type": "string"
            },
            {
              "internalType": "uint256",
              "name": "price",
              "type": "uint256"
            }
          ],
          "internalType": "struct ZineCollection.Magazine[]",
          "name": "",
          "type": "tuple[]"
        }
      ],
      "stateMutability": "view",
      "type": "function"
    }
  ],
  "bytecode": "0x60806040523480156200001157600080fd5b506040516200409a3803806200409a8339818101604052810190620000379190620002ee565b8062000049816200008560201b60201c565b50826005908051906020019062000062929190620000a1565b5081600690805190602001906200007b929190620000a1565b505050506200040c565b80600290805190602001906200009d929190620000a1565b5050565b828054620000af90620003d6565b90600052602060002090601f016020900481019282620000d357600085556200011f565b82601f10620000ee57805160ff19168380011785556200011f565b828001600101855582156200011f579182015b828111156200011e57825182559160200191906001019062000101565b5b5090506200012e919062000132565b5090565b5b808211156200014d57600081600090555060010162000133565b5090565b6000604051905090565b600080fd5b600080fd5b600080fd5b600080fd5b6000601f19601f8301169050919050565b7f4e487b7100000000000000000000000000000000000000000000000000000000600052604160045260246000fd5b620001ba826200016f565b810181811067ffffffffffffffff82111715620001dc57620001db62000180565b5b80604052505050565b6000620001f162000151565b9050620001ff8282620001af565b919050565b600067ffffffffffffffff82111562000222576200022162000180565b5b6200022d826200016f565b9050602081019050919050565b60005b838110156200025a5780820151818401526020810190506200023d565b838111156200026a576000848401525b50505050565b600062000287620002818462000204565b620001e5565b905082815260208101848484011115620002a657620002a56200016a565b5b620002b38482856200023a565b509392505050565b600082601f830112620002d357620002d262000165565b5b8151620002e584826020860162000270565b91505092915050565b6000806000606084860312156200030a57620003096200015b565b5b600084015167ffffffffffffffff8111156200032b576200032a62000160565b5b6200033986828701620002bb565b935050602084015167ffffffffffffffff8111156200035d576200035c62000160565b5b6200036b86828701620002bb565b925050604084015167ffffffffffffffff8111156200038f576200038e62000160565b5b6200039d86828701620002bb565b9150509250925092565b7f4e487b7100000000000000000000000000000000000000000000000000000000600052602260045260246000fd5b60006002820490506001821680620003ef57607f821691505b60208210811415620004065762000405620003a7565b5b50919050565b613c7e806200041c6000396000f3fe6080604052600436106101295760003560e01c8063a0712d68116100ab578063c1cdf3cc1161006f578063c1cdf3cc146103e2578063c84860fc1461040b578063d120b0a91461044c578063d88d20c71461048d578063e985e9c5146104b6578063f242432a146104f357610129565b8063a0712d6814610320578063a22cb46514610349578063b3de019c14610372578063b6194a951461039b578063bfd9e498146103b757610129565b80634e1273f4116100f25780634e1273f4146102395780638dbf5b1e1461027657806395d89b411461029f5780639abc8320146102ca5780639f181b5e146102f557610129565b8062fdd58e1461012e57806301ffc9a71461016b57806306fdde03146101a85780630e89341c146101d35780632eb2c2d614610210575b600080fd5b34801561013a57600080fd5b50610155600480360381019061015091906123f5565b61051c565b6040516101629190612444565b60405180910390f35b34801561017757600080fd5b50610192600480360381019061018d91906124b7565b6105e5565b60405161019f91906124ff565b60405180910390f35b3480156101b457600080fd5b506101bd6106c7565b6040516101ca91906125b3565b60405180910390f35b3480156101df57600080fd5b506101fa60048036038101906101f591906125d5565b610755565b60405161020791906125b3565b60405180910390f35b34801561021c57600080fd5b50610237600480360381019061023291906127ff565b610789565b005b34801561024557600080fd5b50610260600480360381019061025b9190612991565b61082a565b60405161026d9190612ac7565b60405180910390f35b34801561028257600080fd5b5061029d600480360381019061029891906125d5565b610943565b005b3480156102ab57600080fd5b506102b46109c1565b6040516102c191906125b3565b60405180910390f35b3480156102d657600080fd5b506102df610a4f565b6040516102ec91906125b3565b60405180910390f35b34801561030157600080fd5b5061030a610add565b6040516103179190612444565b60405180910390f35b34801561032c57600080fd5b50610347600480360381019061034291906125d5565b610ae3565b005b34801561035557600080fd5b50610370600480360381019061036b9190612b15565b610b1d565b005b34801561037e57600080fd5b5061039960048036038101906103949190612b55565b610b33565b005b6103b560048036038101906103b09190612b95565b610b9e565b005b3480156103c357600080fd5b506103cc610c96565b6040516103d99190612d6d565b60405180910390f35b3480156103ee57600080fd5b50610409600480360381019061040491906125d5565b610e48565b005b34801561041757600080fd5b50610432600480360381019061042d91906123f5565b610ec6565b604051610443959493929190612d8f565b60405180910390f35b34801561045857600080fd5b50610473600480360381019061046e91906125d5565b611036565b604051610484959493929190612d8f565b60405180910390f35b34801561049957600080fd5b506104b460048036038101906104af9190612e91565b611199565b005b3480156104c257600080fd5b506104dd60048036038101906104d89190612f30565b6112b4565b6040516104ea91906124ff565b60405180910390f35b3480156104ff57600080fd5b5061051a60048036038101906105159190612f70565b611348565b005b60008073ffffffffffffffffffffffffffffffffffffffff168373ffffffffffffffffffffffffffffffffffffffff16141561058d576040517f08c379a000000000000000000000000000000000000000000000000000000000815260040161058490613079565b60405180910390fd5b60008083815260200190815260200160002060008473ffffffffffffffffffffffffffffffffffffffff1673ffffffffffffffffffffffffffffffffffffffff16815260200190815260200160002054905092915050565b60007fd9b67a26000000000000000000000000000000000000000000000000000000007bffffffffffffffffffffffffffffffffffffffffffffffffffffffff1916827bffffffffffffffffffffffffffffffffffffffffffffffffffffffff191614806106b057507f0e89341c000000000000000000000000000000000000000000000000000000007bffffffffffffffffffffffffffffffffffffffffffffffffffffffff1916827bffffffffffffffffffffffffffffffffffffffffffffffffffffffff1916145b806106c057506106bf826113e9565b5b9050919050565b600580546106d4906130c8565b80601f0160208091040260200160405190810160405280929190818152602001828054610700906130c8565b801561074d5780601f106107225761010080835404028352916020019161074d565b820191906000526020600020905b81548152906001019060200180831161073057829003601f168201915b505050505081565b6060600861076283611453565b604051602001610773929190613216565b6040516020818303038152906040529050919050565b6107916115b4565b73ffffffffffffffffffffffffffffffffffffffff168573ffffffffffffffffffffffffffffffffffffffff1614806107d757506107d6856107d16115b4565b6112b4565b5b610816576040517f08c379a000000000000000000000000000000000000000000000000000000000815260040161080d906132b7565b60405180910390fd5b61082385858585856115bc565b5050505050565b60608151835114610870576040517f08c379a000000000000000000000000000000000000000000000000000000000815260040161086790613349565b60405180910390fd5b6000835167ffffffffffffffff81111561088d5761088c612607565b5b6040519080825280602002602001820160405280156108bb5781602001602082028036833780820191505090505b50905060005b8451811015610938576109088582815181106108e0576108df613369565b5b60200260200101518583815181106108fb576108fa613369565b5b602002602001015161051c565b82828151811061091b5761091a613369565b5b60200260200101818152505080610931906133c7565b90506108c1565b508091505092915050565b6000600460003373ffffffffffffffffffffffffffffffffffffffff1673ffffffffffffffffffffffffffffffffffffffff168152602001908152602001600020828154811061099657610995613369565b5b906000526020600020906005020160010160006101000a81548160ff02191690831515021790555050565b600680546109ce906130c8565b80601f01602080910402602001604051908101604052809291908181526020018280546109fa906130c8565b8015610a475780601f10610a1c57610100808354040283529160200191610a47565b820191906000526020600020905b815481529060010190602001808311610a2a57829003601f168201915b505050505081565b60088054610a5c906130c8565b80601f0160208091040260200160405190810160405280929190818152602001828054610a88906130c8565b8015610ad55780601f10610aaa57610100808354040283529160200191610ad5565b820191906000526020600020905b815481529060010190602001808311610ab857829003601f168201915b505050505081565b60075481565b600160076000828254610af69190613410565b92505081905550610b1a3360075483604051806020016040528060008152506118d0565b50565b610b2f610b286115b4565b8383611a66565b5050565b81600460003373ffffffffffffffffffffffffffffffffffffffff1673ffffffffffffffffffffffffffffffffffffffff1681526020019081526020016000208281548110610b8557610b84613369565b5b9060005260206000209060050201600401819055505050565b34600460008373ffffffffffffffffffffffffffffffffffffffff1673ffffffffffffffffffffffffffffffffffffffff1681526020019081526020016000208381548110610bf057610bef613369565b5b9060005260206000209060050201600401541115610c0d57600080fd5b6000600460008373ffffffffffffffffffffffffffffffffffffffff1673ffffffffffffffffffffffffffffffffffffffff1681526020019081526020016000208381548110610c6057610c5f613369565b5b9060005260206000209060050201600001549050610c91823383600160405180602001604052806000815250611bd3565b505050565b60606003805480602002602001604051908101604052809291908181526020016000905b82821015610e3f57838290600052602060002090600502016040518060a0016040529081600082015481526020016001820160009054906101000a900460ff16151515158152602001600282018054610d12906130c8565b80601f0160208091040260200160405190810160405280929190818152602001828054610d3e906130c8565b8015610d8b5780601f10610d6057610100808354040283529160200191610d8b565b820191906000526020600020905b815481529060010190602001808311610d6e57829003601f168201915b50505050508152602001600382018054610da4906130c8565b80601f0160208091040260200160405190810160405280929190818152602001828054610dd0906130c8565b8015610e1d5780601f10610df257610100808354040283529160200191610e1d565b820191906000526020600020905b815481529060010190602001808311610e0057829003601f168201915b5050505050815260200160048201548152505081526020019060010190610cba565b50505050905090565b6001600460003373ffffffffffffffffffffffffffffffffffffffff1673ffffffffffffffffffffffffffffffffffffffff1681526020019081526020016000208281548110610e9b57610e9a613369565b5b906000526020600020906005020160010160006101000a81548160ff02191690831515021790555050565b60046020528160005260406000208181548110610ee257600080fd5b9060005260206000209060050201600091509150508060000154908060010160009054906101000a900460ff1690806002018054610f1f906130c8565b80601f0160208091040260200160405190810160405280929190818152602001828054610f4b906130c8565b8015610f985780601f10610f6d57610100808354040283529160200191610f98565b820191906000526020600020905b815481529060010190602001808311610f7b57829003601f168201915b505050505090806003018054610fad906130c8565b80601f0160208091040260200160405190810160405280929190818152602001828054610fd9906130c8565b80156110265780601f10610ffb57610100808354040283529160200191611026565b820191906000526020600020905b81548152906001019060200180831161100957829003601f168201915b5050505050908060040154905085565b6003818154811061104657600080fd5b90600052602060002090600502016000915090508060000154908060010160009054906101000a900460ff1690806002018054611082906130c8565b80601f01602080910402602001604051908101604052809291908181526020018280546110ae906130c8565b80156110fb5780601f106110d0576101008083540402835291602001916110fb565b820191906000526020600020905b8154815290600101906020018083116110de57829003601f168201915b505050505090806003018054611110906130c8565b80601f016020809104026020016040519081016040528092919081815260200182805461113c906130c8565b80156111895780601f1061115e57610100808354040283529160200191611189565b820191906000526020600020905b81548152906001019060200180831161116c57829003601f168201915b5050505050908060040154905085565b60006040518060a0016040528060016007546111b59190613410565b81526020018615158152602001858152602001848152602001838152509050600460003373ffffffffffffffffffffffffffffffffffffffff1673ffffffffffffffffffffffffffffffffffffffff1681526020019081526020016000208190806001815401808255809150506001900390600052602060002090600502016000909190919091506000820151816000015560208201518160010160006101000a81548160ff02191690831515021790555060408201518160020190805190602001906112839291906122aa565b5060608201518160030190805190602001906112a09291906122aa565b506080820151816004015550505050505050565b6000600160008473ffffffffffffffffffffffffffffffffffffffff1673ffffffffffffffffffffffffffffffffffffffff16815260200190815260200160002060008373ffffffffffffffffffffffffffffffffffffffff1673ffffffffffffffffffffffffffffffffffffffff16815260200190815260200160002060009054906101000a900460ff16905092915050565b6113506115b4565b73ffffffffffffffffffffffffffffffffffffffff168573ffffffffffffffffffffffffffffffffffffffff1614806113965750611395856113906115b4565b6112b4565b5b6113d5576040517f08c379a00000000000000000000000000000000000000000000000000000000081526004016113cc906134d8565b60405180910390fd5b6113e28585858585611bd3565b5050505050565b60007f01ffc9a7000000000000000000000000000000000000000000000000000000007bffffffffffffffffffffffffffffffffffffffffffffffffffffffff1916827bffffffffffffffffffffffffffffffffffffffffffffffffffffffff1916149050919050565b6060600082141561149b576040518060400160405280600181526020017f300000000000000000000000000000000000000000000000000000000000000081525090506115af565b600082905060005b600082146114cd5780806114b6906133c7565b915050600a826114c69190613527565b91506114a3565b60008167ffffffffffffffff8111156114e9576114e8612607565b5b6040519080825280601f01601f19166020018201604052801561151b5781602001600182028036833780820191505090505b5090505b600085146115a8576001826115349190613558565b9150600a85611543919061358c565b603061154f9190613410565b60f81b81838151811061156557611564613369565b5b60200101907effffffffffffffffffffffffffffffffffffffffffffffffffffffffffffff1916908160001a905350600a856115a19190613527565b945061151f565b8093505050505b919050565b600033905090565b8151835114611600576040517f08c379a00000000000000000000000000000000000000000000000000000000081526004016115f79061362f565b60405180910390fd5b600073ffffffffffffffffffffffffffffffffffffffff168473ffffffffffffffffffffffffffffffffffffffff161415611670576040517f08c379a0000000000000000000000000000000000000000000000000000000008152600401611667906136c1565b60405180910390fd5b600061167a6115b4565b905061168a818787878787611e55565b60005b845181101561183b5760008582815181106116ab576116aa613369565b5b6020026020010151905060008583815181106116ca576116c9613369565b5b60200260200101519050600080600084815260200190815260200160002060008b73ffffffffffffffffffffffffffffffffffffffff1673ffffffffffffffffffffffffffffffffffffffff1681526020019081526020016000205490508181101561176b576040517f08c379a000000000000000000000000000000000000000000000000000000000815260040161176290613753565b60405180910390fd5b81810360008085815260200190815260200160002060008c73ffffffffffffffffffffffffffffffffffffffff1673ffffffffffffffffffffffffffffffffffffffff168152602001908152602001600020819055508160008085815260200190815260200160002060008b73ffffffffffffffffffffffffffffffffffffffff1673ffffffffffffffffffffffffffffffffffffffff16815260200190815260200160002060008282546118209190613410565b9250508190555050505080611834906133c7565b905061168d565b508473ffffffffffffffffffffffffffffffffffffffff168673ffffffffffffffffffffffffffffffffffffffff168273ffffffffffffffffffffffffffffffffffffffff167f4a39dc06d4c0dbc64b70af90fd698a233a518aa5d07e595d983b8c0526c8f7fb87876040516118b2929190613773565b60405180910390a46118c8818787878787611e5d565b505050505050565b600073ffffffffffffffffffffffffffffffffffffffff168473ffffffffffffffffffffffffffffffffffffffff161415611940576040517f08c379a00000000000000000000000000000000000000000000000000000000081526004016119379061381c565b60405180910390fd5b600061194a6115b4565b905061196b8160008761195c88612035565b61196588612035565b87611e55565b8260008086815260200190815260200160002060008773ffffffffffffffffffffffffffffffffffffffff1673ffffffffffffffffffffffffffffffffffffffff16815260200190815260200160002060008282546119ca9190613410565b925050819055508473ffffffffffffffffffffffffffffffffffffffff16600073ffffffffffffffffffffffffffffffffffffffff168273ffffffffffffffffffffffffffffffffffffffff167fc3d58168c5ae7397731d063d5bbf3d657854427343f4c083240f7aacaa2d0f628787604051611a4892919061383c565b60405180910390a4611a5f816000878787876120af565b5050505050565b8173ffffffffffffffffffffffffffffffffffffffff168373ffffffffffffffffffffffffffffffffffffffff161415611ad5576040517f08c379a0000000000000000000000000000000000000000000000000000000008152600401611acc906138d7565b60405180910390fd5b80600160008573ffffffffffffffffffffffffffffffffffffffff1673ffffffffffffffffffffffffffffffffffffffff16815260200190815260200160002060008473ffffffffffffffffffffffffffffffffffffffff1673ffffffffffffffffffffffffffffffffffffffff16815260200190815260200160002060006101000a81548160ff0219169083151502179055508173ffffffffffffffffffffffffffffffffffffffff168373ffffffffffffffffffffffffffffffffffffffff167f17307eab39ab6107e8899845ad3d59bd9653f200f220920489ca2b5937696c3183604051611bc691906124ff565b60405180910390a3505050565b600073ffffffffffffffffffffffffffffffffffffffff168473ffffffffffffffffffffffffffffffffffffffff161415611c43576040517f08c379a0000000000000000000000000000000000000000000000000000000008152600401611c3a906136c1565b60405180910390fd5b6000611c4d6115b4565b9050611c6d818787611c5e88612035565b611c6788612035565b87611e55565b600080600086815260200190815260200160002060008873ffffffffffffffffffffffffffffffffffffffff1673ffffffffffffffffffffffffffffffffffffffff16815260200190815260200160002054905083811015611d04576040517f08c379a0000000000000000000000000000000000000000000000000000000008152600401611cfb90613753565b60405180910390fd5b83810360008087815260200190815260200160002060008973ffffffffffffffffffffffffffffffffffffffff1673ffffffffffffffffffffffffffffffffffffffff168152602001908152602001600020819055508360008087815260200190815260200160002060008873ffffffffffffffffffffffffffffffffffffffff1673ffffffffffffffffffffffffffffffffffffffff1681526020019081526020016000206000828254611db99190613410565b925050819055508573ffffffffffffffffffffffffffffffffffffffff168773ffffffffffffffffffffffffffffffffffffffff168373ffffffffffffffffffffffffffffffffffffffff167fc3d58168c5ae7397731d063d5bbf3d657854427343f4c083240f7aacaa2d0f628888604051611e3692919061383c565b60405180910390a4611e4c8288888888886120af565b50505050505050565b505050505050565b611e7c8473ffffffffffffffffffffffffffffffffffffffff16612287565b1561202d578373ffffffffffffffffffffffffffffffffffffffff1663bc197c8187878686866040518663ffffffff1660e01b8152600401611ec295949392919061395b565b6020604051808303816000875af1925050508015611efe57506040513d601f19601f82011682018060405250810190611efb91906139d8565b60015b611fa457611f0a613a12565b806308c379a01415611f675750611f1f613a34565b80611f2a5750611f69565b806040517f08c379a0000000000000000000000000000000000000000000000000000000008152600401611f5e91906125b3565b60405180910390fd5b505b6040517f08c379a0000000000000000000000000000000000000000000000000000000008152600401611f9b90613b3c565b60405180910390fd5b63bc197c8160e01b7bffffffffffffffffffffffffffffffffffffffffffffffffffffffff1916817bffffffffffffffffffffffffffffffffffffffffffffffffffffffff19161461202b576040517f08c379a000000000000000000000000000000000000000000000000000000000815260040161202290613bce565b60405180910390fd5b505b505050505050565b60606000600167ffffffffffffffff81111561205457612053612607565b5b6040519080825280602002602001820160405280156120825781602001602082028036833780820191505090505b509050828160008151811061209a57612099613369565b5b60200260200101818152505080915050919050565b6120ce8473ffffffffffffffffffffffffffffffffffffffff16612287565b1561227f578373ffffffffffffffffffffffffffffffffffffffff1663f23a6e6187878686866040518663ffffffff1660e01b8152600401612114959493929190613bee565b6020604051808303816000875af192505050801561215057506040513d601f19601f8201168201806040525081019061214d91906139d8565b60015b6121f65761215c613a12565b806308c379a014156121b95750612171613a34565b8061217c57506121bb565b806040517f08c379a00000000000000000000000000000000000000000000000000000000081526004016121b091906125b3565b60405180910390fd5b505b6040517f08c379a00000000000000000000000000000000000000000000000000000000081526004016121ed90613b3c565b60405180910390fd5b63f23a6e6160e01b7bffffffffffffffffffffffffffffffffffffffffffffffffffffffff1916817bffffffffffffffffffffffffffffffffffffffffffffffffffffffff19161461227d576040517f08c379a000000000000000000000000000000000000000000000000000000000815260040161227490613bce565b60405180910390fd5b505b505050505050565b6000808273ffffffffffffffffffffffffffffffffffffffff163b119050919050565b8280546122b6906130c8565b90600052602060002090601f0160209004810192826122d8576000855561231f565b82601f106122f157805160ff191683800117855561231f565b8280016001018555821561231f579182015b8281111561231e578251825591602001919060010190612303565b5b50905061232c9190612330565b5090565b5b80821115612349576000816000905550600101612331565b5090565b6000604051905090565b600080fd5b600080fd5b600073ffffffffffffffffffffffffffffffffffffffff82169050919050565b600061238c82612361565b9050919050565b61239c81612381565b81146123a757600080fd5b50565b6000813590506123b981612393565b92915050565b6000819050919050565b6123d2816123bf565b81146123dd57600080fd5b50565b6000813590506123ef816123c9565b92915050565b6000806040838503121561240c5761240b612357565b5b600061241a858286016123aa565b925050602061242b858286016123e0565b9150509250929050565b61243e816123bf565b82525050565b60006020820190506124596000830184612435565b92915050565b60007fffffffff0000000000000000000000000000000000000000000000000000000082169050919050565b6124948161245f565b811461249f57600080fd5b50565b6000813590506124b18161248b565b92915050565b6000602082840312156124cd576124cc612357565b5b60006124db848285016124a2565b91505092915050565b60008115159050919050565b6124f9816124e4565b82525050565b600060208201905061251460008301846124f0565b92915050565b600081519050919050565b600082825260208201905092915050565b60005b83811015612554578082015181840152602081019050612539565b83811115612563576000848401525b50505050565b6000601f19601f8301169050919050565b60006125858261251a565b61258f8185612525565b935061259f818560208601612536565b6125a881612569565b840191505092915050565b600060208201905081810360008301526125cd818461257a565b905092915050565b6000602082840312156125eb576125ea612357565b5b60006125f9848285016123e0565b91505092915050565b600080fd5b7f4e487b7100000000000000000000000000000000000000000000000000000000600052604160045260246000fd5b61263f82612569565b810181811067ffffffffffffffff8211171561265e5761265d612607565b5b80604052505050565b600061267161234d565b905061267d8282612636565b919050565b600067ffffffffffffffff82111561269d5761269c612607565b5b602082029050602081019050919050565b600080fd5b60006126c66126c184612682565b612667565b905080838252602082019050602084028301858111156126e9576126e86126ae565b5b835b8181101561271257806126fe88826123e0565b8452602084019350506020810190506126eb565b5050509392505050565b600082601f83011261273157612730612602565b5b81356127418482602086016126b3565b91505092915050565b600080fd5b600067ffffffffffffffff82111561276a57612769612607565b5b61277382612569565b9050602081019050919050565b82818337600083830152505050565b60006127a261279d8461274f565b612667565b9050828152602081018484840111156127be576127bd61274a565b5b6127c9848285612780565b509392505050565b600082601f8301126127e6576127e5612602565b5b81356127f684826020860161278f565b91505092915050565b600080600080600060a0868803121561281b5761281a612357565b5b6000612829888289016123aa565b955050602061283a888289016123aa565b945050604086013567ffffffffffffffff81111561285b5761285a61235c565b5b6128678882890161271c565b935050606086013567ffffffffffffffff8111156128885761288761235c565b5b6128948882890161271c565b925050608086013567ffffffffffffffff8111156128b5576128b461235c565b5b6128c1888289016127d1565b9150509295509295909350565b600067ffffffffffffffff8211156128e9576128e8612607565b5b602082029050602081019050919050565b600061290d612908846128ce565b612667565b905080838252602082019050602084028301858111156129305761292f6126ae565b5b835b81811015612959578061294588826123aa565b845260208401935050602081019050612932565b5050509392505050565b600082601f83011261297857612977612602565b5b81356129888482602086016128fa565b91505092915050565b600080604083850312156129a8576129a7612357565b5b600083013567ffffffffffffffff8111156129c6576129c561235c565b5b6129d285828601612963565b925050602083013567ffffffffffffffff8111156129f3576129f261235c565b5b6129ff8582860161271c565b9150509250929050565b600081519050919050565b600082825260208201905092915050565b6000819050602082019050919050565b612a3e816123bf565b82525050565b6000612a508383612a35565b60208301905092915050565b6000602082019050919050565b6000612a7482612a09565b612a7e8185612a14565b9350612a8983612a25565b8060005b83811015612aba578151612aa18882612a44565b9750612aac83612a5c565b925050600181019050612a8d565b5085935050505092915050565b60006020820190508181036000830152612ae18184612a69565b905092915050565b612af2816124e4565b8114612afd57600080fd5b50565b600081359050612b0f81612ae9565b92915050565b60008060408385031215612b2c57612b2b612357565b5b6000612b3a858286016123aa565b9250506020612b4b85828601612b00565b9150509250929050565b60008060408385031215612b6c57612b6b612357565b5b6000612b7a858286016123e0565b9250506020612b8b858286016123e0565b9150509250929050565b60008060408385031215612bac57612bab612357565b5b6000612bba858286016123e0565b9250506020612bcb858286016123aa565b9150509250929050565b600081519050919050565b600082825260208201905092915050565b6000819050602082019050919050565b612c0a816124e4565b82525050565b600082825260208201905092915050565b6000612c2c8261251a565b612c368185612c10565b9350612c46818560208601612536565b612c4f81612569565b840191505092915050565b600060a083016000830151612c726000860182612a35565b506020830151612c856020860182612c01565b5060408301518482036040860152612c9d8282612c21565b91505060608301518482036060860152612cb78282612c21565b9150506080830151612ccc6080860182612a35565b508091505092915050565b6000612ce38383612c5a565b905092915050565b6000602082019050919050565b6000612d0382612bd5565b612d0d8185612be0565b935083602082028501612d1f85612bf1565b8060005b85811015612d5b5784840389528151612d3c8582612cd7565b9450612d4783612ceb565b925060208a01995050600181019050612d23565b50829750879550505050505092915050565b60006020820190508181036000830152612d878184612cf8565b905092915050565b600060a082019050612da46000830188612435565b612db160208301876124f0565b8181036040830152612dc3818661257a565b90508181036060830152612dd7818561257a565b9050612de66080830184612435565b9695505050505050565b600067ffffffffffffffff821115612e0b57612e0a612607565b5b612e1482612569565b9050602081019050919050565b6000612e34612e2f84612df0565b612667565b905082815260208101848484011115612e5057612e4f61274a565b5b612e5b848285612780565b509392505050565b600082601f830112612e7857612e77612602565b5b8135612e88848260208601612e21565b91505092915050565b60008060008060808587031215612eab57612eaa612357565b5b6000612eb987828801612b00565b945050602085013567ffffffffffffffff811115612eda57612ed961235c565b5b612ee687828801612e63565b935050604085013567ffffffffffffffff811115612f0757612f0661235c565b5b612f1387828801612e63565b9250506060612f24878288016123e0565b91505092959194509250565b60008060408385031215612f4757612f46612357565b5b6000612f55858286016123aa565b9250506020612f66858286016123aa565b9150509250929050565b600080600080600060a08688031215612f8c57612f8b612357565b5b6000612f9a888289016123aa565b9550506020612fab888289016123aa565b9450506040612fbc888289016123e0565b9350506060612fcd888289016123e0565b925050608086013567ffffffffffffffff811115612fee57612fed61235c565b5b612ffa888289016127d1565b9150509295509295909350565b7f455243313135353a2062616c616e636520717565727920666f7220746865207a60008201527f65726f2061646472657373000000000000000000000000000000000000000000602082015250565b6000613063602b83612525565b915061306e82613007565b604082019050919050565b6000602082019050818103600083015261309281613056565b9050919050565b7f4e487b7100000000000000000000000000000000000000000000000000000000600052602260045260246000fd5b600060028204905060018216806130e057607f821691505b602082108114156130f4576130f3613099565b5b50919050565b600081905092915050565b60008190508160005260206000209050919050565b60008154613127816130c8565b61313181866130fa565b9450600182166000811461314c576001811461315d57613190565b60ff19831686528186019350613190565b61316685613105565b60005b8381101561318857815481890152600182019150602081019050613169565b838801955050505b50505092915050565b60006131a48261251a565b6131ae81856130fa565b93506131be818560208601612536565b80840191505092915050565b7f2e6a736f6e000000000000000000000000000000000000000000000000000000600082015250565b60006132006005836130fa565b915061320b826131ca565b600582019050919050565b6000613222828561311a565b915061322e8284613199565b9150613239826131f3565b91508190509392505050565b7f455243313135353a207472616e736665722063616c6c6572206973206e6f742060008201527f6f776e6572206e6f7220617070726f7665640000000000000000000000000000602082015250565b60006132a1603283612525565b91506132ac82613245565b604082019050919050565b600060208201905081810360008301526132d081613294565b9050919050565b7f455243313135353a206163636f756e747320616e6420696473206c656e67746860008201527f206d69736d617463680000000000000000000000000000000000000000000000602082015250565b6000613333602983612525565b915061333e826132d7565b604082019050919050565b6000602082019050818103600083015261336281613326565b9050919050565b7f4e487b7100000000000000000000000000000000000000000000000000000000600052603260045260246000fd5b7f4e487b7100000000000000000000000000000000000000000000000000000000600052601160045260246000fd5b60006133d2826123bf565b91507fffffffffffffffffffffffffffffffffffffffffffffffffffffffffffffffff82141561340557613404613398565b5b600182019050919050565b600061341b826123bf565b9150613426836123bf565b9250827fffffffffffffffffffffffffffffffffffffffffffffffffffffffffffffffff0382111561345b5761345a613398565b5b828201905092915050565b7f455243313135353a2063616c6c6572206973206e6f74206f776e6572206e6f7260008201527f20617070726f7665640000000000000000000000000000000000000000000000602082015250565b60006134c2602983612525565b91506134cd82613466565b604082019050919050565b600060208201905081810360008301526134f1816134b5565b9050919050565b7f4e487b7100000000000000000000000000000000000000000000000000000000600052601260045260246000fd5b6000613532826123bf565b915061353d836123bf565b92508261354d5761354c6134f8565b5b828204905092915050565b6000613563826123bf565b915061356e836123bf565b92508282101561358157613580613398565b5b828203905092915050565b6000613597826123bf565b91506135a2836123bf565b9250826135b2576135b16134f8565b5b828206905092915050565b7f455243313135353a2069647320616e6420616d6f756e7473206c656e6774682060008201527f6d69736d61746368000000000000000000000000000000000000000000000000602082015250565b6000613619602883612525565b9150613624826135bd565b604082019050919050565b600060208201905081810360008301526136488161360c565b9050919050565b7f455243313135353a207472616e7366657220746f20746865207a65726f20616460008201527f6472657373000000000000000000000000000000000000000000000000000000602082015250565b60006136ab602583612525565b91506136b68261364f565b604082019050919050565b600060208201905081810360008301526136da8161369e565b9050919050565b7f455243313135353a20696e73756666696369656e742062616c616e636520666f60008201527f72207472616e7366657200000000000000000000000000000000000000000000602082015250565b600061373d602a83612525565b9150613748826136e1565b604082019050919050565b6000602082019050818103600083015261376c81613730565b9050919050565b6000604082019050818103600083015261378d8185612a69565b905081810360208301526137a18184612a69565b90509392505050565b7f455243313135353a206d696e7420746f20746865207a65726f2061646472657360008201527f7300000000000000000000000000000000000000000000000000000000000000602082015250565b6000613806602183612525565b9150613811826137aa565b604082019050919050565b60006020820190508181036000830152613835816137f9565b9050919050565b60006040820190506138516000830185612435565b61385e6020830184612435565b9392505050565b7f455243313135353a2073657474696e6720617070726f76616c2073746174757360008201527f20666f722073656c660000000000000000000000000000000000000000000000602082015250565b60006138c1602983612525565b91506138cc82613865565b604082019050919050565b600060208201905081810360008301526138f0816138b4565b9050919050565b61390081612381565b82525050565b600081519050919050565b600082825260208201905092915050565b600061392d82613906565b6139378185613911565b9350613947818560208601612536565b61395081612569565b840191505092915050565b600060a08201905061397060008301886138f7565b61397d60208301876138f7565b818103604083015261398f8186612a69565b905081810360608301526139a38185612a69565b905081810360808301526139b78184613922565b90509695505050505050565b6000815190506139d28161248b565b92915050565b6000602082840312156139ee576139ed612357565b5b60006139fc848285016139c3565b91505092915050565b60008160e01c9050919050565b600060033d1115613a315760046000803e613a2e600051613a05565b90505b90565b600060443d1015613a4457613ac7565b613a4c61234d565b60043d036004823e80513d602482011167ffffffffffffffff82111715613a74575050613ac7565b808201805167ffffffffffffffff811115613a925750505050613ac7565b80602083010160043d038501811115613aaf575050505050613ac7565b613abe82602001850186612636565b82955050505050505b90565b7f455243313135353a207472616e7366657220746f206e6f6e204552433131353560008201527f526563656976657220696d706c656d656e746572000000000000000000000000602082015250565b6000613b26603483612525565b9150613b3182613aca565b604082019050919050565b60006020820190508181036000830152613b5581613b19565b9050919050565b7f455243313135353a204552433131353552656365697665722072656a6563746560008201527f6420746f6b656e73000000000000000000000000000000000000000000000000602082015250565b6000613bb8602883612525565b9150613bc382613b5c565b604082019050919050565b60006020820190508181036000830152613be781613bab565b9050919050565b600060a082019050613c0360008301886138f7565b613c1060208301876138f7565b613c1d6040830186612435565b613c2a6060830185612435565b8181036080830152613c3c8184613922565b9050969550505050505056fea26469706673582212208b9550169d0ba97030623a6687b9292cd97ababad041b84c00b825a5fbb3ad6164736f6c634300080b0033",
  "immutableReferences": {},
  "source": "// contracts/MyNFT.sol\n// SPDX-License-Identifier: MIT\npragma solidity ^0.8.0;\n\nimport \"@openzeppelin/contracts/token/ERC721/presets/ERC721PresetMinterPauserAutoId.sol\";\nimport \"@openzeppelin/contracts/token/ERC721/extensions/ERC721URIStorage.sol\";\nimport \"@openzeppelin/contracts/utils/Counters.sol\";\nimport \"@openzeppelin/contracts/token/ERC1155/ERC1155.sol\";\nimport \"@openzeppelin/contracts/utils/Strings.sol\";\n\n// contract MyNFT is ERC721PresetMinterPauserAutoId {\n//     constructor() ERC721PresetMinterPauserAutoId(\"ZineCoin\", \"ZC\", \"http://localhost:3000/\"){}\n//      function tokenURI(uint256 tokenId) public view virtual override returns (string memory) {\n//      return string(abi.encodePacked(super.tokenURI(tokenId),\".json\"));\n//   }\n// }\n\ncontract ZineCollection is ERC1155 {\n\n  struct Magazine  {\n    uint256 id;\n    bool isOnSale;\n    string title;\n    string content;\n    uint256 price;\n  }\n\n  Magazine[]  public magazines;\n  mapping(address => Magazine[]) public magazineById;\n\n  string public name;\n  string public symbol;\n  uint256 public tokenCount;\n  string public baseUri;\n\n  constructor(string memory _name, string memory _symbol, string memory _baseUri) ERC1155(_baseUri){\n    name = _name;\n    symbol = _symbol;\n    _baseUri = _baseUri;\n  }\n\n  function mint(uint256 amount) public {\n    tokenCount += 1;\n    _mint(msg.sender, tokenCount, amount, \"\");\n  }\n\n  function addNewMagazine(\n    bool isOnSale, \n    string memory title, \n    string memory content,\n    uint256 price\n    ) public {\n    Magazine memory magazine = Magazine(tokenCount + 1,isOnSale, title, content, price);\n    magazineById[msg.sender].push(magazine);\n    // magazineById[msg.sender][tokenCount].id = tokenCount;\n    // magazineById[msg.sender][tokenCount].isOnSale = isOnSale;\n    // magazineById[msg.sender][tokenCount].title = title;\n    // magazineById[msg.sender][tokenCount].content = content;\n    // magazineById[msg.sender][tokenCount].price = price;\n    \n  }\n\n  function buyMagazine(uint256 index, address owner) payable public {\n    require(magazineById[owner][index].price <= msg.value);\n    uint256 id = magazineById[owner][index].id;\n    _safeTransferFrom(owner, msg.sender, id, 1, \"\");\n  }\n\n  function setToUnSale(uint256 id) public{\n    magazineById[msg.sender][id].isOnSale = false;\n  }\n\n  function setToSale(uint256 id) public {\n    magazineById[msg.sender][id].isOnSale = true;\n  }\n\n  function changePrice(uint256 price, uint256 id) public {\n    magazineById[msg.sender][id].price = price;\n  }\n\n  function uri(uint256 _tokenId) override public view returns(string memory){\n    return string(\n      abi.encodePacked(\n        baseUri,\n        Strings.toString(_tokenId),\n        \".json\"\n      )\n    );\n  }\n\n  function getMagazines() public view returns(Magazine[] memory){\n    return magazines;\n  }\n}",
  "sourcePath": "/Users/christian/block_chain_app/magazine_market_dapp/contracts/ZineCollection.sol",
  "compiler": {
    "name": "solc",
    "version": "0.8.11+commit.d7f03943.Emscripten.clang"
  },
  "schemaVersion": "3.4.6",
  "updatedAt": "2022-04-24T03:15:24.906Z",
  "devdoc": {
    "kind": "dev",
    "methods": {
      "balanceOf(address,uint256)": {
        "details": "See {IERC1155-balanceOf}. Requirements: - `account` cannot be the zero address."
      },
      "balanceOfBatch(address[],uint256[])": {
        "details": "See {IERC1155-balanceOfBatch}. Requirements: - `accounts` and `ids` must have the same length."
      },
      "isApprovedForAll(address,address)": {
        "details": "See {IERC1155-isApprovedForAll}."
      },
      "safeBatchTransferFrom(address,address,uint256[],uint256[],bytes)": {
        "details": "See {IERC1155-safeBatchTransferFrom}."
      },
      "safeTransferFrom(address,address,uint256,uint256,bytes)": {
        "details": "See {IERC1155-safeTransferFrom}."
      },
      "setApprovalForAll(address,bool)": {
        "details": "See {IERC1155-setApprovalForAll}."
      },
      "supportsInterface(bytes4)": {
        "details": "See {IERC165-supportsInterface}."
      }
    },
    "version": 1
  },
  "userdoc": {
    "kind": "user",
    "methods": {},
    "version": 1
  }
}